:100000000C9462000C948A000C948A000C948A0070
:100010000C948A000C948A000C948A000C948A0038
:100020000C948A000C948A000C948A000C948A0028
:100030000C948A000C948A000C948A000C948A0018
:100040000C94A4040C948A000C9414050C94EE04F3
:100050000C948A000C948A000C948A000C948A00F8
:100060000C948A000C948A00000000080002010031
:100070000003040700000000000000000000000072
:10008000250028002B0000000000240027002A0083
:1000900000000000230026002900040404040404D6
:1000A0000404020202020202030303030303010227
:1000B00004081020408001020408102001020408F6
:1000C0001020460511241FBECFEFD8E0DEBFCDBF04
:1000D00011E0A0E0B1E0E6E1FDE002C005900D9284
:1000E000A231B107D9F721E0A2E1B1E001C01D9230
:1000F000A63CB207E1F710E0C2E6D0E004C02197C9
:10010000FE010E948306C136D107C9F70E94D705B8
:100110000C9489060C940000EF92FF920F931F93AA
:10012000CF93DF9328E030E080E041E0A3E2B0E04D
:100130009FECE92EF12C9091B801E091B901F0917A
:10014000BA01F8945181592B51836281792F7095AE
:10015000672362838D01ED012197F1F751815723C8
:100160005183E8012197F1F750817894F701319795
:10017000F1F7952309F0842B440F21503109D9F66A
:10018000DF91CF911F910F91FF90EF900895CF9243
:10019000DF92EF92FF920F931F93CF93DF9328E0AC
:1001A00030E041E06BE871E093E7C92ED12CCBE25F
:1001B000D0E00BED11E09091B801E091B901F09120
:1001C000BA01F92EF094582F542389F1F8945281F2
:1001D0005F2152835181592B5183DE011197F1F731
:1001E0005281952B92837894F8013197F1F7440F5F
:1001F0002150310901F7F894E091B901F091BA0169
:1002000091818091B801809598239183E091B90103
:10021000F091BA019281892382837894DF91CF9102
:100220001F910F91FF90EF90DF90CF900895F89479
:1002300052815F2152835181592B5183DB011197E8
:10024000F1F75281952B92837894F601CECF80916D
:10025000B801E091B901F091BA01F8949181282F89
:1002600020959223918378943DE743E050E031500C
:1002700029F1DA011197F1F790819823C1F3F894ED
:100280009281922392839181982B91837894A3EB0E
:10029000BBE01197F1F7F894918192239183A3E148
:1002A000B1E01197F1F79081982381E009F080E0A7
:1002B0007894E3E6F6E03197F1F7089580E0089549
:1002C000E0E7F0E02491E6EBF0E09491E2EAF0E080
:1002D000E491EE23C9F0222339F0233001F1A8F490
:1002E000213019F1223029F1F0E0EE0FFF1FE45820
:1002F000FF4FA591B4912FB7F894EC91811126C0CE
:1003000090959E239C932FBF08952730A9F0283005
:10031000C9F0243049F7209180002F7D03C020913F
:1003200080002F7720938000DFCF24B52F7724BD66
:10033000DBCF24B52F7DFBCF2091B0002F7720930A
:10034000B000D2CF2091B0002F7DF9CF9E2BDACF15
:100350003FB7F8948091170190911801A09119016D
:10036000B0911A0126B5A89B05C02F3F19F0019640
:10037000A11DB11D3FBFBA2FA92F982F8827BC01FF
:10038000CD01620F711D811D911D42E0660F771F27
:10039000881F991F4A95D1F708958F929F92AF9227
:1003A000BF92CF92DF92EF92FF920E94A8014B0181
:1003B0005C0180E9C82EDD24D394E12CF12C0E944D
:1003C000A801681979098A099B09683E734081056B
:1003D0009105A8F321E0C21AD108E108F10888EEDE
:1003E000880E83E0981EA11CB11CC114D104E10445
:1003F000F10429F7FF90EF90DF90CF90BF90AF907E
:100400009F908F900895AF92BF92CF92DF92EF921C
:10041000FF920F931F93CF93DF936C017B018B01AE
:10042000040F151FEB015E01AE18BF08C017D107FE
:1004300059F06991D601ED91FC910190F081E02D88
:10044000C6010995892B79F7C501DF91CF911F91DD
:100450000F91FF90EF90DF90CF90BF90AF900895F5
:10046000FC01538D448D252F30E0842F90E0821BBA
:10047000930B541710F0CF96089501970895FC013F
:10048000918D828D981761F0A28DAE0FBF2FB11D97
:100490005D968C91928D9F5F9F73928F90E00895EF
:1004A0008FEF9FEF0895FC01918D828D981731F0A9
:1004B000828DE80FF11D858D90E008958FEF9FEFFD
:1004C0000895FC01918D228D892F90E0805C9F4FD3
:1004D000821B91098F73992708958BE191E00E9407
:1004E000610221E0892B09F420E0822F089580E049
:1004F00090E0892B29F00E946D0281110C9400007C
:100500000895FC01A48DA80FB92FB11DA35ABF4FA8
:100510002C91848D90E001968F739927848FA68902
:10052000B7892C93A089B1898C91837080648C9356
:10053000938D848D981306C00288F389E02D808105
:100540008F7D80830895EF92FF920F931F93CF9337
:10055000DF93EC0181E0888F9B8D8C8D98131AC0FE
:10056000E889F989808185FF15C09FB7F894EE89E5
:10057000FF896083E889F989808183708064808342
:100580009FBF81E090E0DF91CF911F910F91FF908D
:10059000EF900895F62E0B8D10E00F5F1F4F0F7335
:1005A0001127E02E8C8D8E110CC00FB607FCFACFF0
:1005B000E889F989808185FFF5CFCE010E9481020B
:1005C000F1CFEB8DEC0FFD2FF11DE35AFF4FF082C1
:1005D0009FB7F8940B8FEA89FB8980818062CFCF27
:1005E000CF93DF93EC01888D8823B9F0AA89BB896A
:1005F000E889F9898C9185FD03C0808186FD0DC055
:100600000FB607FCF7CF8C9185FFF2CF808185FF75
:10061000EDCFCE010E948102E9CFDF91CF91089505
:100620005F926F927F928F929F92AF92BF92CF9282
:10063000DF92EF92FF920F931F93CF93DF93CDB78B
:10064000DEB7CE5FD1400FB6F894DEBF0FBECDBF90
:100650008BE191E00E943F027C018BE191E00E94DE
:100660003F028C01582E8BE191E00E943F023C0139
:10067000EE20D9F0CE0101965C016C01470199246E
:10068000C6018A199B09881599057CF48BE191E0D4
:100690000E94610218161906CCF78BE191E00E94C6
:1006A0003F02F60181936F01EBCF81E00E94600170
:1006B0000E94CD01C30199278233910509F4A3C09B
:1006C0004CF48130910509F43EC0C19709F465C02E
:1006D000512C4AC08333910509F4B2C08C3C91057A
:1006E000B9F70E9427018BE396E00197F1F78CECB4
:1006F0000E94C700CE0101965C016C01FF2493E6C5
:10070000892E99249394C6018A199B098E159F05F9
:100710000CF4F8C06E01D3947601112783E6A82E5D
:10072000BB24B394C7018C199D0980179107E4F489
:10073000C5010197F1F70E948C00F7018283FFEF5A
:10074000EF1AFF0AEFCFCE5FDE4F1882C250D140C2
:1007500082E0CD5FDE4F8883C350D14081E0CC5F23
:10076000DE4F8883C450D1407E01F394F70160824C
:100770005182539453946701052D10E0C6018E19E0
:100780009F09801791070CF0C6C0F60161916F01B7
:100790008BE191E00E94A302F1CF0E942701ABE31D
:1007A000EA2EA6E0FA2EC7010197F1F78CEC0E9421
:1007B000C70003E611E0C8010197F1F789E90E943B
:1007C000C7000E94CD010E942701C7010197F1F7E0
:1007D00081E30E94C700C8010197F1F70E948C00D5
:1007E000CD5FDE4F8883C350D140C8010197F1F738
:1007F0000E948C00CE5FDE4F8883C250D140C8017A
:100800000197F1F7B1CF0E942701FBE3EF2EF6E04D
:10081000FF2EC7010197F1F78CEC0E94C70003E699
:1008200011E0C8010197F1F789E90E94C7000E9411
:10083000CD010E942701C7010197F1F782E3C9CFDB
:100840000E9427018BE396E00197F1F783E30E9472
:10085000C700C12CDD24D394CC0EDD1EF2E0CF0EF8
:10086000D11CA12CBB24B394AC0EBD1E8AE0A80EF3
:10087000B11CE3E68E2E99249394C4010197F1F7FD
:100880000E948C00F60181936F01AE16BF06A9F796
:10089000CE0101965C016C01FF2453E6852E99245C
:1008A0009394C6018A199B098E159F0514F1E12CBA
:1008B000FF24F394EC0EFD1E9AE0E90EF11C38E0E3
:1008C000C32ED12C1127095F1F4F43E6A42EBB2452
:1008D000B3940C151D050CF447CFC5010197F1F732
:1008E0000E948C00F70181937F01FFEFCF1ADF0A8E
:1008F000F0CFC4010197F1F7F60181916F010E94D9
:10090000C700CFCFC4010197F1F7F60181916F01C4
:100910000E94C700F8CE80E0C250DE4F0FB6F894B8
:10092000DEBF0FBECDBFDF91CF911F910F91FF9022
:10093000EF90DF90CF90BF90AF909F908F907F907F
:100940006F905F900C9460011F920F920FB60F9200
:1009500011242F933F938F939F93AF93BF938091D5
:10096000130190911401A0911501B09116013091DD
:10097000120123E0230F2D3758F50196A11DB11D5B
:10098000209312018093130190931401A0931501F9
:10099000B09316018091170190911801A09119014F
:1009A000B0911A010196A11DB11D8093170190937A
:1009B0001801A0931901B0931A01BF91AF919F91B3
:1009C0008F913F912F910F900FBE0F901F90189510
:1009D00026E8230F0296A11DB11DD2CF1F920F92C0
:1009E0000FB60F9211242F933F934F935F936F9302
:1009F0007F938F939F93AF93BF93EF93FF938BE17D
:100A000091E00E948102FF91EF91BF91AF919F9180
:100A10008F917F916F915F914F913F912F910F90A7
:100A20000FBE0F901F9018951F920F920FB60F9246
:100A300011242F938F939F93EF93FF93E0912B01BA
:100A4000F0912C018081E0913101F091320182FD21
:100A50001BC09081809134018F5F8F73209135018D
:100A6000821741F0E0913401F0E0E55EFE4F958F92
:100A700080933401FF91EF919F918F912F910F906F
:100A80000FBE0F901F9018958081F4CFCF93DF9306
:100A900010921E0110921D0188EE93E0A0E0B0E0DC
:100AA00080931F0190932001A0932101B093220114
:100AB00084E091E090931C0180931B0185EC90E011
:100AC000909328018093270184EC90E090932A0171
:100AD0008093290180EC90E090932C0180932B016E
:100AE00081EC90E090932E0180932D0182EC90E0B8
:100AF0009093300180932F0186EC90E09093320127
:100B00008093310110923401109235011092360118
:100B10001092370144EB50E0FA01649180EA90E0D2
:100B2000FC0124912223C1F030E0220F331FF90190
:100B3000EA57FF4FA591B491F901E458FF4FC591D1
:100B4000D4917FB7F8943C91262F209532233C9383
:100B50003881232328837FBFFA0144914093B80151
:100B6000FC018491E82FF0E0EE0FFF1FE057FF4FEC
:100B7000859194919093BA018093B9011092C30129
:100B80001092C5011092C4011092C2011092C101CD
:100B90001092C0011092BF011092BE011092BD01CF
:100BA0001092BC011092BB01DF91CF91089578940F
:100BB00084B5826084BD84B5816084BD85B5826062
:100BC00085BD85B5816085BD80916E008160809313
:100BD0006E0010928100809181008260809381007C
:100BE000809181008160809381008091800081608C
:100BF000809380008091B10084608093B1008091E7
:100C0000B00081608093B00080917A00846080930E
:100C10007A0080917A00826080937A0080917A00D5
:100C2000816080937A0080917A00806880937A0056
:100C30001092C100E0912B01F0912C0182E08083A1
:100C4000E0912701F09128011082E0912901F091B3
:100C50002A018FEC808310923301E0912F01F091F3
:100C6000300186E08083E0912D01F0912E0180819A
:100C700080618083E0912D01F0912E018081886058
:100C80008083E0912D01F0912E0180818068808326
:100C9000E0912D01F0912E0180818F7D8083E6EB24
:100CA000F0E02491E2EAF0E08491882399F090E06A
:100CB000880F991FFC01EA57FF4FA591B491FC01E1
:100CC000E458FF4F859194918FB7F894EC91E22B03
:100CD000EC938FBFC0E0D0E08BE191E00E94610215
:100CE000049744F08BE191E00E943F02813011F4BF
:100CF0000E941003209781F30E946D02882361F304
:100D00000E940000E9CFEE0FFF1F0590F491E02D47
:060D10000994F894FFCFE6
:100D160000000000A30203023002F00261023F025B
:020D2600530276
:00000001FF
