:100000000C9463000C948B000C948B000C948B006C
:100010000C948B000C948B000C948B000C948B0034
:100020000C948B000C948B000C948B000C948B0024
:100030000C948B000C948B000C948B000C948B0014
:100040000C9410090C948B000C9480090C945A09A0
:100050000C948B000C948B000C948B000C948B00F4
:100060000C948B000C948B000000000024002700EF
:100070002A0000000008000201000003040700003D
:1000800000000000000000000000250028002B00F8
:1000900000000000230026002900040404040404D6
:1000A0000404020202020202030303030303010227
:1000B00004081020408001020408102001020408F6
:1000C0001020B2099C0C11241FBECFEFD8E0DEBF78
:1000D000CDBF11E0A0E0B1E0ECE1FFE102C005908E
:1000E0000D92A432B107D9F722E0A4E2B1E001C039
:1000F0001D92AB31B207E1F710E0C2E6D0E004C0D8
:100100002197FE010E94FC0CC136D107C9F70E945D
:10011000810A0C94810F0C940000EF92FF920F93D0
:100120001F93CF93DF9328E030E080E041E0A3E22B
:10013000B0E09FECE92EF12C90910902E0910A02C7
:10014000F0910B02F8945181592B51836281792FE0
:100150007095672362838D01ED012197F1F751813D
:1001600057235183E8012197F1F750817894F701E3
:100170003197F1F7952309F0842B440F2150310971
:10018000D9F6DF91CF911F910F91FF90EF900895D5
:10019000CF92DF92EF92FF920F931F93CF93DF9353
:1001A00028E030E041E06BE871E093E7C92ED12C04
:1001B000CBE2D0E00BED11E090910902E0910A0250
:1001C000F0910B02F92EF094582F542389F1F894F2
:1001D00052815F2152835181592B5183DE01119746
:1001E000F1F75281952B92837894F8013197F1F7CA
:1001F000440F2150310901F7F894E0910A02F0917F
:100200000B02918180910902809598239183E0915E
:100210000A02F0910B029281892382837894DF9104
:10022000CF911F910F91FF90EF90DF90CF900895A5
:10023000F89452815F2152835181592B5183DB0104
:100240001197F1F75281952B92837894F601CECFD6
:1002500080910902E0910A02F0910B02F8949181D9
:10026000282F20959223918378943DE743E050E036
:10027000315029F1DA011197F1F790819823C1F3F8
:10028000F8949281922392839181982B9183789410
:10029000A3EBBBE01197F1F7F8949181922391833E
:1002A000A3E1B1E01197F1F79081982381E009F083
:1002B00080E07894E3E6F6E03197F1F7089580E086
:1002C000089580910B0120E4829FC0011124809346
:1002D0007C0080917A00806480937A0080917A001B
:1002E00086FDFCCF8091780090917900089583304D
:1002F00081F028F4813099F08230A9F00895873098
:10030000A9F08830C9F08430B1F4809180008F7DED
:1003100003C0809180008F7780938000089584B51A
:100320008F7784BD089584B58F7DFBCF8091B00019
:100330008F778093B00008958091B0008F7DF9CFC2
:100340001F93CF93DF93282F30E0F901EE58FF4F32
:100350008491F901E255FF4FD491F901E656FF4F20
:10036000C491CC23A9F0162F81110E947701EC2FA4
:10037000F0E0EE0FFF1FEA57FF4FA591B4918FB742
:10038000F894EC91111108C0D095DE23DC938FBF57
:10039000DF91CF911F910895DE2BF8CFCF93DF939C
:1003A00090E0FC01E255FF4F249186569F4FFC01DF
:1003B00084918823C9F090E0880F991FFC01E859C7
:1003C000FF4FA591B491FC01EA57FF4FC591D4911D
:1003D00061110DC09FB7F8948C91209582238C9366
:1003E0008881282328839FBFDF91CF9108956230B1
:1003F00051F49FB7F8943C91822F809583238C937E
:10040000E8812E2BEFCF8FB7F894EC912E2B2C9305
:100410008FBFEACF3FB7F89480915201909153017A
:10042000A0915401B091550126B5A89B05C02F3F5E
:1004300019F00196A11DB11D3FBFBA2FA92F982F0A
:100440008827BC01CD01620F711D811D911D42E005
:10045000660F771F881F991F4A95D1F708950F934C
:100460001F93CF93DF93CDB7DEB729970FB6F894DC
:10047000DEBF0FBECDBF0E940A02009102021091A2
:100480000302209104023091050260177107820770
:10049000930740F460930202709303028093040276
:1004A0009093050200910202109103022091040230
:1004B00030910502601B710B820B930B6C32714003
:1004C00081059105C0F2F8948091F7019091F801AF
:1004D0009A838983E091FC01F091FD01DF0111967F
:1004E000808189879091F301E0910602F0910702E3
:1004F00080910802992309F445C09081982B988730
:100500009081809589238F838F818C8388E08B8372
:1005100058856F8149853B812C8189819A815083DF
:1005200047FD252F3A952083262F39F0441F00C020
:1005300000006083000000C0F2CF38E04D9160837E
:100540000000019761F7F0930702E09306024987E4
:100550003B832C839A83898378940E940A02609358
:10056000020270930302809304029093050229967D
:100570000FB6F894DEBF0FBECDBFDF91CF911F91B4
:100580000F9108959081982B988790818095892369
:100590008F838F818E8388E08D8358856F81498515
:1005A0003D812E8189819A81508347FD252F00C08E
:1005B00000C0208300C000C000C000C000C0608335
:1005C0000000262F3A9541F0441F000000C000C0F3
:1005D00000C000C000C0E8CF38E04D9100C060838B
:1005E00000C0019709F7F0930702E09306024987DC
:1005F0003D832E83AFCF8F929F92AF92BF92CF92C7
:10060000DF92EF92FF924B015C010E940A026B01A4
:100610007C010E940A026C197D098E099F09683EBF
:10062000734081059105A8F321E0821A9108A10881
:10063000B10888EEC80E83E0D81EE11CF11C8114BD
:100640009104A104B10429F7FF90EF90DF90CF90BF
:10065000BF90AF909F908F9008952FB7F8946091BE
:100660004E0170914F0180915001909151012FBF27
:100670000895AF92BF92CF92DF92EF92FF920F93C5
:100680001F93CF93DF936C017B018B01040F151F28
:10069000EB015E01AE18BF08C017D10759F0699190
:1006A000D601ED91FC910190F081E02DC6010995F4
:1006B000892B79F7C501DF91CF911F910F91FF90A1
:1006C000EF90DF90CF90BF90AF900895FC01538DD5
:1006D000448D252F30E0842F90E0821B930B54171C
:1006E00010F0CF96089501970895FC01918D828DA9
:1006F000981761F0A28DAE0FBF2FB11D5D968C9142
:10070000928D9F5F9F73928F90E008958FEF9FEF80
:100710000895FC01918D828D981731F0828DE80F3C
:10072000F11D858D90E008958FEF9FEF0895FC01F6
:10073000918D228D892F90E0805C9F4F821B9109C3
:100740008F739927089586E591E00E94970321E031
:10075000892B09F420E0822F089580E090E0892B16
:1007600029F00E94A30381110C9400000895FC015C
:10077000A48DA80FB92FB11DA35ABF4F2C91848D02
:1007800090E001968F739927848FA689B7892C935F
:10079000A089B1898C91837080648C93938D848DB2
:1007A000981306C00288F389E02D80818F7D8083B5
:1007B0000895EF92FF920F931F93CF93DF93EC0175
:1007C00081E0888F9B8D8C8D98131AC0E889F989F8
:1007D000808185FF15C09FB7F894EE89FF896083FB
:1007E000E889F98980818370806480839FBF81E07C
:1007F00090E0DF91CF911F910F91FF90EF900895BE
:10080000F62E0B8D10E00F5F1F4F0F731127E02E98
:100810008C8D8E110CC00FB607FCFACFE889F989D0
:10082000808185FFF5CFCE010E94B703F1CFEB8D1C
:10083000EC0FFD2FF11DE35AFF4FF0829FB7F894A4
:100840000B8FEA89FB8980818062CFCFCF93DF93C2
:10085000EC01888D8823B9F0AA89BB89E889F989D8
:100860008C9185FD03C0808186FD0DC00FB607FC0D
:10087000F7CF8C9185FFF2CF808185FFEDCFCE0140
:100880000E94B703E9CFDF91CF9108954F925F9215
:100890006F927F928F929F92AF92BF92CF92DF9290
:1008A000EF92FF920F931F93CF93DF93EC017B01A5
:1008B0008A01288130E0F901EE58FF4F8491F90157
:1008C000E255FF4FD490F901E656FF4FC490CC207B
:1008D000C1F181110E947701EC2DF0E0EE0FFF1FB6
:1008E000E057FF4FA591B491EC91DE2291E080E0BA
:1008F00009F490E0C92ED82EC60121E08227382FB6
:100900003170B32E0E942D03F7011082F80110827E
:1009100029812B15C9F0B9826B837C838D839E83DB
:10092000DF91CF911F910F91FF90EF90DF90CF90CB
:10093000BF90AF909F908F907F906F905F904F90FF
:100940000895D12CC12CD8CF8B809C80AD80BE80E7
:100950002B013C01481859086A087B0853014201E1
:1009600039E183169104A104B104D0F23A8132171F
:10097000B9F22A83CD2841F46F83788789879A87D3
:1009800081E0F7018083CCCF81E0FCCFCF92DF9272
:10099000EF92FF92C0902401D0902501E0902601B3
:1009A000F090270180E0C114D104E104F10471F05A
:1009B0000E942D03DC01CB018C199D09AE09BF09F2
:1009C0008827B7FD83959927AA27BB27FF90EF902B
:1009D000DF90CF9008950F931F931092330160938F
:1009E0002B0170932C0180932D0190932E01609325
:1009F0002F01709330018093310190933201409325
:100A00002A012115310511F428EE33E03093290134
:100A10002093280180E090E0DC010115110541F0F0
:100A20000E942D03DC01CB01800F911FA11DB11D80
:100A30008093240190932501A0932601B093270170
:100A40001F910F9108950F931F9310E000E030E085
:100A500020E040E060E070E0CB010E94EB041F91D9
:100A60000F9108950F931F9380914C01823091F064
:100A7000833041F18130A1F510E000E030E020E06A
:100A800040E060E07FEF80E090E00E94EB041F9187
:100A90000F91089510E000E024EF31E043E060E0C2
:100AA00070E08FEF90E00E94EB0480E09FEFA0E009
:100AB000B0E080932F0190933001A0933101B09367
:100AC0003201E5CF00ED17E026E930E041E06FEFBD
:100AD00070E0CB010E94EB0481E080933301D7CF1B
:100AE0001F910F910C9423054F925F926F927F920A
:100AF0008F929F92AF92BF92CF92DF92EF92FF922E
:100B00000F931F930E942D032B013C018091330111
:100B1000882371F00E94C60481110AC010E000E031
:100B200030E020E040E060E070E0CB010E94EB04A8
:100B300080902B0190902C01A0902D01B0902E015F
:100B400080912A018130D1F4E0902801F0902901B0
:100B5000970150E040E0C301B2010E94C00CF6943E
:100B6000E7946701F12CE12C30E020E06C157D0565
:100B70008E059F0528F52FEF30E022C0823009F066
:100B8000CFC0E0902801F09029016701D694C79466
:100B9000970150E040E0C301B2010E94C00C9B01EC
:100BA000AC012601712C612C6C157D0508F0AFC0DD
:100BB000AFEFB0E00E94F10CA30192010E94C00CC3
:100BC00040E3429FC001439F900D11242FEF30E07E
:100BD000B9010E94AC0CFB01A69EC001A79E900D1E
:100BE0001124B9010E94AC0C462FBB27AB2D9A2DC6
:100BF000892D99278E9FB0018F9F700D9E9F700D3C
:100C00001124CB01B9010E94AC0CC62ED12CF12CC1
:100C1000E12CFE2CED2CDC2CCC24E42A99248E9E95
:100C2000C0018F9E900D9E9E900D1124B9010E94CF
:100C3000AC0CC62A8091000190910101A0910201A3
:100C4000B09103018C159D05AE05BF0509F450C098
:100C50008091F5019091F601892BD1F14701AA24E9
:100C6000BB24A82D77276F2D5E2D4D2D242F3C2DD5
:100C70008091FB01882361F0889E40011124A92DF9
:100C8000849FA0011124252F8C9DC0011124392F90
:100C9000E09101028091FC019091FD014091FE01E3
:100CA000E41721F0E80FF92FF11D1082E091FE0109
:100CB000E80FF92FF11DA083E091FF01E80FF92F54
:100CC000F11D208320910002820F911DFC013083D1
:100CD0008091FC019091FD01892B11F00E942F025F
:100CE000C0920001D0920101E0920201F092030152
:100CF0001F910F91FF90EF90DF90CF90BF90AF903A
:100D00009F908F907F906F905F904F900895C70154
:100D1000821B930B9C01AFEFB0E00E94E20C4CCF22
:100D2000833009F028CFE0902801F0902901970145
:100D300050E040E0C301B2010E94C00CF694E79479
:100D40006701F12CE12C6C157D058E059F0508F4DB
:100D500012CF80902F0190903001A0903101B0907F
:100D6000320109CF0E94C604882319F00E9474053D
:100D7000F9CF08957F928F929F92AF92BF92CF92B8
:100D8000DF92EF92FF920F931F93CF93DF934C016B
:100D9000A62E7A01722E0E9428018BE396E001971D
:100DA000F1F783E30E94C800E7012896870193E6E4
:100DB000C92EDD24D394C6010197F1F70E948D005E
:100DC000F80181938F01EC17FD07A9F76401B12C9D
:100DD00003E611E0C601881999098A159B05ACF054
:100DE000072D10E0095F1F4F83E6C82EDD24D39442
:100DF000CE018E199F090817190784F0C6010197C3
:100E0000F1F70E948D008993F3CFC8010197F1F7A4
:100E1000F60181916F010E94C800DCCFDF91CF9174
:100E20001F910F91FF90EF90DF90CF90BF90AF9008
:100E30009F908F907F9008955F926F927F928F9294
:100E40009F92AF92BF92CF92DF92EF92FF920F9359
:100E50001F93CF93DF93CDB7DEB7CE5FD1400FB6F0
:100E6000F894DEBF0FBECDBF86E591E00E9475030A
:100E70008C0186E591E00E9475037C01582E86E581
:100E800091E00E9475033C010023D9F0CE01019648
:100E90005C016C0148019924C6018A199B098815D7
:100EA00099057CF486E591E00E94970318161906CF
:100EB000CCF786E591E00E947503F60181936F01FE
:100EC000EBCF61E088E00E94A00160E971E080E082
:100ED00090E00E94FB02C30199278133910509F438
:100EE000BBC06CF48130910509F443C048E0F42E96
:100EF00010E000E0029709F465C0512C4AC083332A
:100F0000910509F404C10CF4E1C08C3C9105A9F7EA
:100F10000E9428018BE396E00197F1F78CEC0E9488
:100F2000C800CE0101965C016C01112793E6892E61
:100F300099249394C6018A199B09801791070CF490
:100F4000F0C06E01D3948601FF2483E6A82EBB2453
:100F5000B394C8018C199D098E159F05D4F4C50161
:100F60000197F1F70E948D00F80182830F5F1F4FF8
:100F7000F0CFCE5FDE4F1882C250D14083E0CD5F0C
:100F8000DE4F8883C350D140CC5FDE4F1882C450FF
:100F9000D1407E01F394F7016082518253945394BF
:100FA0006701052D10E0C6018E199F098017910772
:100FB0000CF0C0C0F60161916F0186E591E00E94DE
:100FC000D903F1CF0E946101080F191FFA94F110A3
:100FD000F9CFB80190E080E00E94310D20E030E0D0
:100FE00040E05EE30E949C0D29E030EF4CE85AE3BC
:100FF0000E949C0D20E030E048EA51E40E949C0DE4
:101000006B017C0120E030E0A9010E94970D1816C9
:10101000FCF420E030E04AE754E4C701B6010E9446
:101020009C0D0E94020D6F3FFFEF7F078105910528
:1010300020F06EEF7FEF80E090E0CE5FDE4F6883C0
:10104000C250D140CD5FDE4F7883C350D140A1CF95
:1010500060E070E0CB01F1CF0E9428013BE3E32E7A
:1010600036E0F32EC7010197F1F78CEC0E94C8001F
:1010700003E611E0C8010197F1F789E90E94C80071
:1010800060E971E080E090E00E94FB020E9428018C
:10109000C7010197F1F781E30E94C800C8010197D9
:1010A000F1F70E948D00CD5FDE4F8883C350D140A1
:1010B000C8010197F1F70E948D00CE5FDE4F888353
:1010C000C250D140C8010197F1F763CF0E942801B7
:1010D0002BE3E22E26E0F22EC7010197F1F78CEC0C
:1010E0000E94C80003E611E0C8010197F1F789E901
:1010F0000E94C80060E971E080E090E00E94FB027D
:101100000E942801C7010197F1F782E3C5CF2E2D78
:10111000AE014E5F5E4F602FCE0101960E94BA066F
:1011200038CFC4010197F1F7F60181916F010E9458
:10113000C80000CF60E088E00E94A001C250DE4FEE
:101140000FB6F894DEBF0FBECDBFDF91CF911F91D8
:101150000F91FF90EF90DF90CF90BF90AF909F9056
:101160008F907F906F905F9008950F931F93CF9310
:10117000DF93CDB7DEB7E0970FB6F894DEBF0FBEB2
:10118000CDBF10E000E020EA30E041E06FEF70E01A
:1011900080E090E00E94EB040E94740561E088E02A
:1011A0000E94A00160E971E080E090E00E94FB02F3
:1011B00028E2AE014F5F5F4F62E084E091E00E9461
:1011C000BA0660E088E00E94A001FE013196AE01FF
:1011D000475D5F4F81E091E021912F3F11F090E05A
:1011E000211180E04E175F07B9F7911102C08823E3
:1011F00081F083E080934C010E943205E0960FB6A7
:10120000F894DEBF0FBECDBFDF91CF911F910F913C
:1012100008958D8D8F7011F082E0ECCF81E0EACFE0
:101220001F920F920FB60F9211242F933F938F931B
:101230009F93AF93BF9380914E0190914F01A091E6
:101240005001B091510130914D0123E0230F2D3712
:1012500058F50196A11DB11D20934D0180934E01BB
:1012600090934F01A0935001B0935101809152018E
:1012700090915301A0915401B09155010196A11D87
:10128000B11D8093520190935301A0935401B093E8
:101290005501BF91AF919F918F913F912F910F90E9
:1012A0000FBE0F901F90189526E8230F0296A11DE0
:1012B000B11DD2CF1F920F920FB60F9211242F9310
:1012C0003F934F935F936F937F938F939F93AF93CE
:1012D000BF93EF93FF9386E591E00E94B703FF91E0
:1012E000EF91BF91AF919F918F917F916F915F919E
:1012F0004F913F912F910F900FBE0F901F90189517
:101300001F920F920FB60F9211242F938F939F93DA
:10131000EF93FF93E0916601F09167018081E09186
:101320006C01F0916D0182FD1BC0908180916F0175
:101330008F5F8F7320917001821741F0E0916F01F0
:10134000F0E0EA5AFE4F958F80936F01FF91EF9185
:101350009F918F912F910F900FBE0F901F90189516
:101360008081F4CF109259011092580188EE93E0D9
:10137000A0E0B0E080935A0190935B01A0935C01E0
:10138000B0935D0186E191E09093570180935601FF
:1013900085EC90E0909363018093620184EC90E08F
:1013A000909365018093640180EC90E090936701D5
:1013B0008093660181EC90E09093690180936801CD
:1013C00082EC90E090936B0180936A0186EC90E050
:1013D00090936D0180936C0110926F0110927001D7
:1013E000109271011092720160E086E00E94CE01BD
:1013F000E4EBF0E0E491E0930902E0EAF0E0E4914C
:10140000F0E0EE0FFF1FE057FF4F8591949190930E
:101410000B0280930A02109214021092160210928C
:1014200015021092130210921202109211021092E1
:10143000100210920F0210920E0210920D021092E2
:101440000C021092F4011092FB0110920202109211
:101450000302109204021092050281E080930102BF
:101460008093FE011092FF0192E09093000280931E
:10147000F30183E090E09093F8018093F7010E94DC
:10148000550E9093FD018093FC01009789F123E0B4
:10149000FC0111922A95E9F781E090E09093F60122
:1014A0008093F50184E090E09093FA018093F90134
:1014B0008091F401882341F061E084E00E94CE0134
:1014C00060E084E00E94A001EEE9F0E0E491F0E049
:1014D000EE0FFF1FEA57FF4F8591949190930702FB
:1014E00080930602E2EBF0E0E491E09308020895B5
:1014F0001092F8011092F7011092F6011092F50186
:10150000D1CFCF93DF93CDB7DEB763970FB6F89403
:10151000DEBF0FBECDBF789484B5826084BD84B534
:10152000816084BD85B5826085BD85B5816085BDDE
:1015300080916E00816080936E0010928100809196
:10154000810082608093810080918100816080931E
:101550008100809180008160809380008091B10043
:1015600084608093B1008091B00081608093B0006E
:1015700080917A00846080937A0080917A00826002
:1015800080937A0080917A00816080937A008091C4
:101590007A00806880937A001092C100E091660121
:1015A000F091670182E08083E0916201F091630134
:1015B0001082E0916401F09165018FEC80831092BC
:1015C0006E01E0916A01F0916B0186E08083E09109
:1015D0006801F0916901808180618083E0916801F8
:1015E000F0916901808188608083E0916801F091C9
:1015F0006901808180688083E0916801F0916901D0
:1016000080818F7D808361E088E00E94CE0183E04D
:1016100080930B016AE070E080E090E00E94FB02A2
:101620000E9461010E9461018091F9019091FA018B
:1016300097FD7FC161E00E94CE0160E08091F901D9
:101640000E94A00181E08093F4014091F701509144
:10165000F80170E060E08091FC019091FD010E9432
:101660007A0F8091FC019091FD01892B11F00E946D
:101670002F0262E083E00E94CE0183E0809340016C
:1016800010924101109242011092430110924401C4
:1016900010924501109246011092470110924801A4
:1016A0001092490110924A0162E082E00E94CE014C
:1016B00082E080933501109236011092370110922A
:1016C00038011092390110923A0110923B011092A8
:1016D0003C0110923D0110923E0110923F010CED31
:1016E00010E030E020E040E060E070E08FEF90E05C
:1016F0000E94EB040E94B20630E020E040E060E08F
:101700007FEF80E090E00E94EB040E94B20630E0A0
:1017100020E040E06FEF70E080E090E00E94EB049A
:101720000E94B20608EE13E030E020E040E060E006
:1017300070E0CB010E94EB040E94B2060E942305D8
:1017400080E0C82E80E0D82EFF24F39486E591E057
:101750000E949703049744F086E591E00E94750388
:10176000813011F40E941C07AE014E5E5F4FBE0136
:101770006D5E7F4F80E491E00E9446048B89882350
:1017800069F0F0924B0110E000E02AEF30E041E018
:101790006FEF70E080E090E00E94EB0480914B01DD
:1017A000882309F46CC080914201882309F467C042
:1017B0000E942D0300914701109148012091490199
:1017C00030914A01601B710B820B930B683E734092
:1017D0008105910508F453C010924B0180914C0192
:1017E000823009F04AC010E000E020E530E041E03E
:1017F0006FEF70E080E090E00E94EB040E947405BF
:1018000061E088E00E94A00160E971E080E090E082
:101810000E94FB0229E0AE014F5F5F4F63E088E06A
:1018200091E00E94BA0660E088E00E94A00161E0B9
:1018300088E00E94A00160E971E080E090E00E94F1
:10184000FB0229E0AE014F5F5F4F62E086E091E06E
:101850000E94BA0660E088E00E94A00108E512E05C
:1018600028E730E041E06FEF7FEF80E090E00E94FA
:10187000EB04F09233010E94B2060E94B5088A89F7
:10188000882341F080914B01882321F010924B0175
:101890000E943205AE014E5E5F4FBE016D5E7F4F0E
:1018A00085E391E00E9446048B898111F092340116
:1018B000809134018823E9F0809137018823C9F0B1
:1018C0000E942D0300913C0110913D0120913E01A9
:1018D00030913F01601B710B820B930B683E73408C
:1018E0008105910530F01092340110924C010E9454
:1018F00023058A8981111092340180914C01811154
:101900000AC080914B01811106C00E94C60481115A
:1019100002C00E9423050E947405C114D10409F479
:1019200015CF0E94A303882309F410CF0E94000062
:101930000DCF1092F40189CE8091FC019091FD01B0
:101940000E94F10E8091F9019091FA0197FD03C078
:1019500060E00C94CE010895AA1BBB1B51E107C0A7
:10196000AA1FBB1FA617B70710F0A61BB70B881F2F
:10197000991F5A95A9F780959095BC01CD010895BE
:10198000A1E21A2EAA1BBB1BFD010DC0AA1FBB1F83
:10199000EE1FFF1FA217B307E407F50720F0A21BF5
:1019A000B30BE40BF50B661F771F881F991F1A9462
:1019B00069F760957095809590959B01AC01BD018C
:1019C000CF010895A29FB001B39FC001A39F700DE6
:1019D000811D1124911DB29F700D811D1124911D37
:1019E00008950E94E20CA59F900DB49F900DA49FB6
:1019F000800D911D11240895EE0FFF1F0590F491A5
:101A0000E02D09940E94760D88F09F5798F0B92F29
:101A10009927B751B0F0E1F0660F771F881F991F23
:101A20001AF0BA95C9F714C0B13091F00E94900D28
:101A3000B1E008950C94900D672F782F8827B85F38
:101A400039F0B93FCCF3869577956795B395D9F77B
:101A50003EF490958095709561957F4F8F4F9F4F85
:101A60000895E89409C097FB3EF490958095709591
:101A700061957F4F8F4F9F4F9923A9F0F92F96E9DA
:101A8000BB279395F695879577956795B795F1114F
:101A9000F8CFFAF4BB0F11F460FF1BC06F5F7F4FEC
:101AA0008F4F9F4F16C0882311F096E911C07723FE
:101AB00021F09EE8872F762F05C0662371F096E807
:101AC000862F70E060E02AF09A95660F771F881FD6
:101AD000DAF7880F9695879597F9089557FD9058EE
:101AE000440F551F59F05F3F71F04795880F97FBE2
:101AF000991F61F09F3F79F087950895121613069C
:101B00001406551FF2CF4695F1DF08C016161706CA
:101B10001806991FF1CF86957105610508940895FF
:101B2000E894BB2766277727CB0197F908950E9491
:101B3000090E08F48FEF08950E94AF0D0C94440E27
:101B40000E94360E38F00E943D0E20F0952311F0D1
:101B50000C942D0E0C94330E11240C94910D0E94B4
:101B60006E0D70F3959FC1F3950F50E0551F629F66
:101B7000F001729FBB27F00DB11D639FAA27F00DE6
:101B8000B11DAA1F649F6627B00DA11D661F829F0D
:101B90002227B00DA11D621F739FB00DA11D621FF2
:101BA000839FA00D611D221F749F3327A00D611D0F
:101BB000231F849F600D211D822F762F6A2F1124F1
:101BC0009F5750409AF0F1F088234AF0EE0FFF1F24
:101BD000BB1F661F771F881F91505040A9F79E3F7B
:101BE000510580F00C942D0E0C94910D5F3FE4F3A1
:101BF000983ED4F3869577956795B795F795E795D1
:101C00009F5FC1F7FE2B880F911D9695879597F9D9
:101C10000895990F0008550FAA0BE0E8FEEF16167D
:101C20001706E807F907C0F012161306E407F507D0
:101C300098F0621B730B840B950B39F40A2661F044
:101C4000232B242B252B21F408950A2609F4A140E7
:101C5000A6958FEF811D811D089597F99F6780E8F4
:101C600070E060E008959FEF80EC089500240A94EE
:101C70001616170618060906089500240A94121667
:101C80001306140605060895092E0394000C11F49A
:101C9000882352F0BB0F40F4BF2B11F460FF04C047
:101CA0006F5F7F4F8F4F9F4F08950F931F93CF9379
:101CB000DF938230910510F482E090E0E091190208
:101CC000F0911A0230E020E0B0E0A0E0309799F403
:101CD0002115310509F44AC0281B390B2430310580
:101CE000D8F58A819B816115710589F1FB01938388
:101CF0008283FE0111C04081518102811381481706
:101D00005907E0F04817590799F4109761F01296B7
:101D10000C93129713961C933296CF01DF91CF91BB
:101D20001F910F9108950093190210931A02F4CF96
:101D30002115310551F04217530738F0A901DB0195
:101D40009A01BD01DF01F801C1CFEF01F9CF9093F6
:101D50001A0280931902CDCFFE01E20FF31F819387
:101D600091932250310939832883D7CF20911702CC
:101D700030911802232B41F420910E0130910F0174
:101D8000309318022093170220910C0130910D011D
:101D90002115310541F42DB73EB740911001509106
:101DA0001101241B350BE0911702F0911802E21784
:101DB000F307A0F42E1B3F0B2817390778F0AC016E
:101DC0004E5F5F4F2417350748F04E0F5F1F50934B
:101DD000180240931702819391939FCFF0E0E0E0C7
:101DE0009CCFCF93DF930097E9F0FC0132971382E9
:101DF0001282A0911902B0911A02ED0130E020E0A8
:101E00001097A1F420813181820F931F2091170236
:101E1000309118022817390709F061C0F0931802B1
:101E2000E0931702DF91CF910895EA01CE17DF0703
:101E3000E8F54A815B819E0141155105B1F7E90141
:101E4000FB83EA8349915991C40FD51FEC17FD0715
:101E500061F4808191810296840F951FE901998335
:101E60008883828193819B838A83F0E0E0E01296ED
:101E70008D919C9113970097B9F52D913C911197F5
:101E8000CD010296820F931F209117023091180204
:101E90002817390739F6309751F510921A02109227
:101EA0001902B0931802A0931702BCCFD383C28348
:101EB00040815181840F951FC817D90761F44E5F87
:101EC0005F4F88819981480F591F518340838A81D0
:101ED0009B81938382832115310509F0B0CFF09364
:101EE0001A02E09319029ECFFD01DC01C0CF1382DC
:101EF0001282D7CFDC0101C06D9341505040E0F712
:101F0000089510E0C2E6D0E004C0FE010E94FC0C7F
:0C1F10002196C336D107C9F7F894FFCF23
:101F1C00FFFFFFFFAA00DA04D996A50100001B02FF
:101F2C00800000000000D9033903660326049703E0
:041F3C00750389039D
:00000001FF
